:03000000020006F5
:03005F0002000399
:030003000203F401
:20006200E582900002F0E0FF24F850030200E7900001E0FEFDED30E04CEE30E11574075FBB
:20008200F5F005F07401800225E0D5F0FBFD4280801474075FF5F005F07401800225E0D5F0
:2000A200F0FBF4FD528074075FFD74075DFC74E05E4CF59E8DF005F07401800225E0D5F021
:2000C200FBF452932274075FFD74075D4410FC74E05E4CF59E8DF005F07401800225E0D555
:2000E200F0FB429322EF24F05003020165900001E0FEFDED30E04CEE30E11574075FF5F0D6
:2001020005F07401800225E0D5F0FBFD4290801474075FF5F005F07401800225E0D5F0FB59
:20012200F4FD529074075FFD74075DFC74E05E4CF59F8DF005F07401800225E0D5F0FBF48B
:2001420052942274075FFD74075D4410FC74E05E4CF59F8DF005F07401800225E0D5F0FBD6
:20016200429422EF24E850030201E3900001E0FEFDED30E04CEE30E11574075FF5F005F0D4
:200182007401800225E0D5F0FBFD42A0801474075FF5F005F07401800225E0D5F0FBF4FDCD
:2001A20052A074075FFD74075DFC74E05E4CF5978DF005F07401800225E0D5F0FBF452950D
:2001C2002274075FFD74075D4410FC74E05E4CF5978DF005F07401800225E0D5F0FB42956D
:2001E20022EF24E14075900001E0FEFDED30E04CEE30E11574075FF5F005F0740180022599
:20020200E0D5F0FBFD42B0801474075FF5F005F07401800225E0D5F0FBF4FD52B074075F7C
:20022200FD74075DFC74E05E4CF58F8DF005F07401800225E0D5F0FBF45296225307077468
:20024200075F4410FD74E05E4DF58F8FF005F07401800225E0D5F0FBFF429622E582900042
:2002620003F0E0FF24F8401474075FF5F005F07401800225E0D5F0FBF4528022EF24F0409F
:200282001474075FF5F005F07401800225E0D5F0FBF4529022EF24E8401474075FF5F005CD
:2002A200F07401800225E0D5F0FBF452A022EF24E1401474075FF5F005F07401800225E090
:2002C200D5F0FBF4FF52B022E582900004F0E0FF24F8401374075FF5F005F074018002253C
:2002E200E0D5F0FB428022EF24F0401374075FF5F005F07401800225E0D5F0FB429022EFCF
:2003020024E8401374075FF5F005F07401800225E0D5F0FB42A022EF24E1401374075FF5F2
:20032200F005F07401800225E0D5F0FBFF42B022AF83E582900005F0EFA3F0900005E0FEF4
:20034200A3E0FF900005E0F5F0A3E045F07001221EBEFF011F900005EEF0EFA3F0900005EF
:20036200E0FEA3E0FF7C007D00C3EC9EED9F500900000CBC00F30D80F022AF83E58290006D
:2003820007F0EFA3F0900007E0FEA3E0FF7C007D00C3EC9EED9F501D9003E8C007C006C0E4
:2003A20005C0041203B8D004D005D006D0070CBC00DF0D80DC22AF83E582900009F0EFA369
:2003C200F0900009E0FEA3E0FF7C007D00C3EC9EED9F501D9003E8C007C006C005C0041250
:2003E2000332D004D005D006D0070CBC00DF0D80DC229000017401F07582001200627582E6
:18040200001202CA9001F41203B875820012025E9003E81203B880E69B
:06003500E478FFF6D8FD9F
:200013007900E94400601B7A0090041E780B75C900E493F2A308B8000205C9D9F4DAF27515
:02003300C9FF03
:20003B007800E84400600A790175C900E4F309D8FC780AE84400600C7901900001E4F0A38F
:04005B00D8FCD9FAFA
:0D00060075810712041AE5826003020003F1
:04041A0075820022C5
:00000001FF
